:020000040800F2
:100000000348044B834202D0034B03B118477047A7
:100010000400002004000020000000000548064BFA
:100020001B1AD90F01EBA301491002D0034B03B1F6
:100030001847704704000020040000200000000062
:1000400010B5064C237843B9FFF7DAFF044B13B120
:100050000448AFF300800123237010BD040000208A
:10006000000000006001000808B5054B1BB1054900
:100070000548AFF30080BDE80840FFF7CFBF00BFE1
:10008000000000000800002060010008704700BF69
:10009000704700BF024B13B1024800F005B870472B
:1000A00000000000B5000008002301461A4618466B
:1000B00000F014B838B5074D074C2C1BA41005D020
:1000C000013C55F8043D9847002CF9D1BDE8384073
:1000D00000F04CB88401000880010008F0B51D4C08
:1000E00083B005462068019116461F46FFF7CEFFF4
:1000F000194A0199136823B35A6820681F2A23DC20
:100100004DB9541C02325C6043F82210FFF7C0FF67
:10011000002003B0F0BD03EB820E0124CEF888600E
:10012000D3F88861944046EA040C022DC3F888C1D4
:10013000CEF80871E5D1D3F88C512543C3F88C5122
:10014000DFE7064B1360D7E7FFF7A2FF4FF0FF3062
:10015000DFE700BF0000002024000020280000206E
:10016000F8B500BFF8BC08BC9E467047F8B500BFA4
:08017000F8BC08BC9E46704774
:08017800950000086900000871
:040180004100000832
:040184002000002037
:0400000508000000EF
:00000001FF
